:100000000C946B0C0C949C0C0C949C0C0C949C0C01
:100010000C949C0C0C949C0C0C949C0C0C949C0CC0
:100020000C949C0C0C949C0C0C949C0C0C949C0CB0
:100030000C949C0C0C949C0C0C949C0C0C949C0CA0
:100040000C949C0C0C944C360C949C0C0C949C0CB6
:100050000C949C0C0C949C0C0C9431650C94636374
:100060000C949C0C0C94E2350C949C0C0C949C0C01
:100070000C949C0C0C949C0C0C949C0C0C949C0C60
:100080000C949C0C0C949C0C0C949C0C0C949C0C50
:100090000C949C0C0C949C0C0C949C0C0C949C0C40
:1000A0000C949C0C0C949C0C0C949C0C0C949C0C30
:1000B0000C949C0C0C949C0C0C949C0C0C949C0C20
:1000C0000C949C0C0C949C0C0C949C0C0C949C0C10
:1000D0000C949C0C0C949C0C0C949C0C0C949C0C00
:1000E0000C949C0CB261B561A461A861AE61EC6135
:1000F000B961BD61C361C761CB61D161D561D961AE
:10010000EC61DF61E361E7617F628462896293622F
:100110009D621663A762AF62B762C162CB62D562AD
:10012000E462EE621663F86202630C63084AD73B2E
:100130003BCE016E84BCBFFDC12F3D6C74319ABDB6
:1001400056833DDA3D00C77F11BED9E4BB4C3E91DA
:100150006BAAAABE000000803F05A84CCDB2D44EC9
:10016000B93836A9020C50B9918688083CA6AAAACB
:100170002ABE000000803F004E414E494E4954596E
:10018000494E46CDCCCC3D0AD7233C17B7D1387762
:10019000CC2B329595E6241FB14F0A000020410078
:1001A00000C84200401C4620BCBE4CCA1B0E5AAEC2
:1001B000C59D74434F4D4D554E49434154494F4E93
:1001C0000044525952554E004552524F5253004925
:1001D0004E464F004543484F0047322F4733206279
:1001E000616420706172616D65746572730A0025C7
:1001F00069730025696D20256973002569682025CC
:10020000696D2025697300256964202569682025AA
:10021000696D202569730025697920256964202589
:1002200069682025696D20256973005072696E74B4
:100230002074696D653A200050726F74656374654F
:10024000642050696E0A00D401CF01C801C101B316
:10025000016F66660044454255473A004B494C4C95
:1002600045442E20004D3131332053006F6B002068
:10027000573A0053657474696E67205472617665ED
:100280006C20416363656C65726174696F6E3A20BE
:100290000053657474696E6720526574726163748B
:1002A00020416363656C65726174696F6E3A20000A
:1002B00053657474696E67205072696E742041636F
:1002C00063656C65726174696F6E3A200053657482
:1002D00074696E67205072696E7420616E64205478
:1002E000726176656C20416363656C6572617469E7
:1002F0006F6E3A2000205A00205900580020204DEF
:1003000061783A2000205A00205900580020204DE2
:10031000696E3A20004F6E20004F666600536F668C
:100320007420656E6473746F70733A2000486F7444
:10033000656E64206F6666736574733A00000136FB
:10034000372603FF3C3D380EFF2E303EFF13FF0CD7
:100350000809FFFFFF1A1C18FFFF24221EFFFF08D9
:10036000440AFF4307FF45FFFFFFFFFFFF20643AFA
:100370000020693A0020703A0043290A0061626C4B
:10038000656420286D696E2074656D702000436F70
:100390006C64206578747275646573206172652081
:1003A0000023646566696E65202044454641554CCE
:1003B000545F4B64200023646566696E65202044A9
:1003C000454641554C545F4B69200023646566697E
:1003D0006E65202044454641554C545F4B702000CB
:1003E000504944204175746F74756E652066696E5E
:1003F0006973686564212050757420746865206C89
:10040000617374204B702C204B6920616E64204B0B
:100410006420636F6E7374616E74732066726F6DA7
:100420002062656C6F7720696E746F20436F6E6613
:10043000696775726174696F6E2E680A005049446D
:10044000204175746F74756E65206661696C6564B2
:10045000212074696D656F75740A0050494420410C
:1004600075746F74756E65206661696C65642120B2
:1004700054656D706572617475726520746F6F205C
:10048000686967680A00204B643A2000204B693A8B
:100490002000204B703A20000A20436C617373697E
:1004A0006320504944200A002054753A2000204B14
:1004B000753A2000206D61783A2000206D696E3A0F
:1004C000200020643A200020626961733A200054C1
:1004D0006F6F206661722066726F6D20726566654F
:1004E00072656E636520706F696E740A00290A0078
:1004F0002062797465733B206372632000536574D6
:1005000074696E67732053746F72656420280041AC
:1005100075746F0020452F443D00416476616E6321
:1005200065204B3D004E6F2063617365206C6967E9
:1005300068740A00556E6B6E6F776E20636F6D6D19
:10054000616E643A202200656E7175657565696E2D
:10055000672022004E6F204C696E65204E756D62DB
:100560006572207769746820636865636B73756D65
:100570002C204C617374204C696E653A20004B4905
:100580004C4C45442E20005072696E746572207385
:10059000746F707065642064756520746F20657277
:1005A000726F72732E2046697820746865206572B8
:1005B000726F7220616E6420757365204D39393910
:1005C00020746F20726573746172742E20285465D4
:1005D0006D706572617475726520697320726573E0
:1005E00065742E2053657420697420616674657289
:1005F0002072657374617274696E67290A004E6FA8
:1006000020436865636B73756D2077697468206C2F
:10061000696E65206E756D6265722C204C61737415
:10062000204C696E653A2000636865636B73756D75
:10063000206D69736D617463682C204C6173742044
:100640004C696E653A20004C696E65204E756D628E
:100650006572206973206E6F74204C617374204C36
:10066000696E65204E756D6265722B312C204C6170
:100670007374204C696E653A20004D313130002092
:10068000496E76616C696420657874727564657210
:10069000200000000000000000000000000000003A
:1006A000A54300007A430000AF43202F0020400004
:1006B00020403A00205A3A0020423A0020436F7509
:1006C0006E7420413A0020453A00205A3A002059E1
:1006D0003A00583A004361703A454D455247454EFD
:1006E00043595F5041525345523A300A00436170BA
:1006F0003A434153455F4C494748545F425249474A
:1007000048544E4553533A300A004361703A544FAF
:1007100047474C455F4C49474854533A300A0043D9
:1007200061703A534F4654574152455F504F5745B9
:10073000523A300A004361703A4C4556454C494E96
:10074000475F444154413A300A004361703A5A5F6E
:1007500050524F42453A300A004361703A41555475
:100760004F4C4556454C3A300A004361703A50525E
:10077000494E545F4A4F423A310A004361703A5041
:10078000524F47524553533A300A004361703A4141
:1007900055544F5245504F52545F54454D503A3185
:1007A0000A004361703A454550524F4D3A310A00B4
:1007B0004649524D574152455F4E414D453A4D6174
:1007C000726C696E20312E312E342028476974688E
:1007D00075622920534F555243455F434F44455F4F
:1007E00055524C3A68747470733A2F2F6769746865
:1007F00075622E636F6D2F4D61726C696E46697202
:100800006D776172652F4D61726C696E2050524F29
:10081000544F434F4C5F56455253494F4E3A312E39
:1008200030204D414348494E455F545950453A3375
:1008300044205072696E7465722045585452554474
:1008400045525F434F554E543A3220555549443A2C
:1008500063656465326132662D343161322D34371F
:1008600034382D396231322D633535633632663393
:10087000363766660A002F2F200024F4D43050C388
:100880008E20C2A24017828B7011127A910D816C5A
:10089000D90AA861E108C7586607615143061E4B93
:1008A0005D05C145A7041A411104093D980371393A
:1008B00031034036DB0265339102D4305402802E7E
:1008C0001D02632CEE01752AC501B028A001102776
:1008D00081018F2564012B244B01E0223401AC21DE
:1008E0001F018D200D01801FFC00841EED00971D4F
:1008F000DF00B81CD200E61BC600201BBC00641A37
:10090000B200B219A8000A19A0006A189900D117FC
:10091000910040178B00B516840031167E00B31588
:1009200079003A157300C7146F0058146A00EE136B
:1009300066008813630025135E00C7125B006C120B
:10094000570015125400C111510070114F002111B0
:100950004B00D61049008D1047004610440002108D
:100960004200C00F4000800F3E00420F3C00060FC7
:100970003B00CB0E3800930E37005C0E3500270E7F
:100980003400F30D3200C10D3100900D3000600DC8
:100990002E00320D2D00050D2C00D90C2B00AE0CB5
:1009A0002900850C29005C0C2700350C27000E0C53
:1009B0002600E80B2400C40B2400A00B23007D0BB1
:1009C00023005A0B2100390B2100180B2000F80AD4
:1009D0001F00D90A1E00BB0A1E009D0A1D00800AC6
:1009E0001D00630A1C00470A1B002C0A1B00110A89
:1009F0001A00F7091A00DD091900C4091900AB092A
:100A00001900920917007B091800630917004C09A7
:100A1000160036091600200916000A091500F50807
:100A20001500E0081400CC081400B8081400A4084D
:100A30001400900813007D0812006B08130058087A
:100A40001200460812003408110023081100120891
:100A5000110001081100F0071000E0071000D00796
:100A60001000C0071000B0070F00A1071000910789
:100A70000E0083070F0074070F0065070E0057076D
:100A80000E0049070E003B070D002E070E00200741
:100A90000D0013070D0006070D00F9060C00ED060A
:100AA0000D00E0060C00D4060C00C8060C00BC06C5
:100AB0000C00B0060C00A4060B0099060C008D0675
:100AC0000B0082060B0077060B006C060B0061061C
:100AD0000A0057060B004C060A0042060A003806B8
:100AE0000A002E060A0024060A001A060A0010064A
:100AF000090007060A00FD050900F4050900EB05D9
:100B00000900E2050900D9050900D0050900C7055B
:100B10000900BE050900B5050800AD050800A505DA
:100B200009009C050800940508008C050800840550
:100B300008007C050800740508006C0507006505C1
:100B400008005D050700560508004E05070047052B
:100B500007004005080038050700310507002A0591
:100B60000700230507001C050600160507000F05F2
:100B700007000805060002050700FB040600F5044F
:100B80000700EE040600E8040600E2040700DB04A8
:100B90000600D5040600CF040600C9040600C304FD
:100BA0000600BD040600B7040600B1040500AC044D
:100BB0000600A6040600A00405009B040600950498
:100BC0000500900406008A040500850405008004E1
:100BD00006007A04050075040500700405006B0426
:100BE000050066040500610405005C040500570467
:100BF0000500520405004D040500480405004304A7
:100C000005003E0404003A040500350405003004E4
:100C100004002C04050027040400230405001E041E
:100C200004001A04040016040500110404000D0455
:100C30000400090405000404040000040400FC038B
:100C40000400F8030400F4030400F0030400EC03C0
:100C50000400E8030400E4030400E0030400DC03F0
:100C60000400D8030400D4030400D0030400CC0320
:100C70000400C8030300C503030024F404D9201BA7
:100C8000C40C5C0E9804C4095F0265077101F40589
:100C9000F900FB04B30048048700C103690058034E
:100CA000550003034500BE023A008402310053029E
:100CB0002A002902250004022000E4011C00C801CA
:100CC0001900AF011700980114008401130071018D
:100CD00010006101100051010E0043010D003601AA
:100CE0000B002B010B0020010B00150109000C016A
:100CF000090003010800FB000800F3000800EB00F6
:100D00000700E4000600DE000600D8000600D2005E
:100D10000600CC000500C7000500C2000500BD00AC
:100D20000400B9000400B5000400B1000400AD00E7
:100D30000400A9000400A5000300A20003009F0016
:100D400004009B000300980003009500020093003C
:100D50000300900003008D0002008B000300880058
:100D600002008600020084000300810002007F0070
:100D700002007D0002007B00020079000200770083
:100D80000100760002007400020072000100710090
:100D900002006F0002006D0001006C0002006A009A
:100DA00001006900020067000100660001006500A3
:100DB00001006400020062000100610001006000A7
:100DC00001005F0002005D0001005C0001005B00AB
:100DD00001005A00010059000100580001005700AD
:100DE00001005600010055000100540001005300AD
:100DF00000005300010052000100510001005000AA
:100E000001004F0001004E0000004E0001004D00A7
:100E100001004C0001004B0000004B0001004A00A3
:100E2000010049000100480000004800010047009F
:100E3000010046000000460001004500000045009A
:100E40000100440001004300000043000100420093
:100E5000000042000100410000004100010040008C
:100E600001003F0000003F0001003E0000003E0086
:100E700001003D0000003D0001003C0000003C007E
:100E800000003C0001003B0000003B0001003A0074
:100E900000003A000100390000003900010038006C
:100EA0000000380000003800010037000000370063
:100EB0000100360000003600000036000100350059
:100EC000000035000000350001003400000034004F
:100ED0000000340001003300000033000000330044
:100EE0000100320000003200000032000100310039
:100EF000000031000000310001003000000030002F
:100F00000000300001002F0000002F0000002F0023
:100F100000002F0001002E0000002E0000002E0017
:100F200001002D0000002D0000002D0000002D000C
:100F300001002C0000002C0000002C0000002C0000
:100F400001002B0000002B0000002B0000002B00F4
:100F500001002A0000002A0000002A0000002A00E8
:100F600001002900000029000000290000002900DC
:100F700000002900010028000000280000002800CF
:100F800000002800000028000100270000002700C2
:100F900000002700000027000000270001002600B5
:100FA00000002600000026000000260000002600A9
:100FB000010025000000250000002500000025009C
:100FC000000025000000250001002400000024008E
:100FD0000000240000002400000024000100230081
:100FE0000000230000002300000023000000230075
:100FF0000000230000002300010022000000220066
:101000000000220000002200000022000000220058
:10101000010021000000210000002100000021004B
:10102000000021000000210000002100010020003C
:101030000000200000002000000020000000200030
:1010400000002000000020000000200001001F0020
:1010500000001F0000001F0000001F0000001F0014
:1010600000001F0000001F0001001E0000001E0005
:1010700000001E0000001E0000007A5F6D61783ADB
:101080002000795F6D696E3A2000785F6D696E3A75
:1010900020005265706F7274696E6720656E6473AC
:1010A000746F70207374617475730A0020746F6FAD
:1010B000206C6F6E6720657874727573696F6E202F
:1010C00070726576656E7465640A0020636F6C6487
:1010D00020657874727573696F6E207072657665BD
:1010E0006E7465640A00202863616C63756C6174BA
:1010F000656429210A0020213D2000454550524FBA
:101100004D20435243206D69736D61746368202DD7
:10111000202873746F726564292000290A002062F8
:10112000797465733B2063726320002073746F725F
:1011300065642073657474696E6773207265747278
:101140006965766564202800204D61726C696E3D8A
:10115000563339290A0028454550524F4D3D004528
:101160004550524F4D2076657273696F6E206D69E0
:10117000736D61746368200048617264636F6465B5
:10118000642044656661756C742053657474696E7F
:101190006773204C6F616465640A00D0070000D05B
:1011A0000700003200000010270000000048430044
:1011B0000048430000A041000034420000204300EA
:1011C000002043F0F77B4400008C43205200202095
:1011D0004D393030204B004C696E6561722041649E
:1011E00076616E63653A0A002044002049002020A1
:1011F0004D33303120500020440020490020500061
:1012000020204D333031204500504944207365740F
:1012100074696E67733A0A00205A002059002058FA
:101220000020204D323138205400486F74656E64C0
:10123000206F6666736574733A0A00205A0020595D
:101240000020204D323036205800486F6D65206FE9
:1012500066667365743A0A00204500205A002059DA
:101260000020580020420020540020204D3230350C
:10127000205300416476616E6365643A20533C6D8F
:10128000696E5F66656564726174653E20543C6D8D
:10129000696E5F74726176656C5F666565647261C4
:1012A00074653E20423C6D696E5F7365676D656E67
:1012B000745F74696D655F6D733E20583C6D617835
:1012C0005F78795F6A65726B3E205A3C6D61785F2A
:1012D0007A5F6A65726B3E20453C6D61785F655F41
:1012E0006A65726B3E0A0020540020520020204D97
:1012F000323034205000416363656C6572617469FB
:101300006F6E2028756E6974732F7332293A2050DE
:101310003C7072696E745F616363656C3E20523C21
:10132000726574726163745F616363656C3E2054BF
:101330003C74726176656C5F616363656C3E0A0044
:10134000204500205A0020590020204D3230312005
:1013500058004D6178696D756D20416363656C65FA
:10136000726174696F6E2028756E6974732F7332A1
:10137000293A0A00204500205A0020590020204D1B
:101380003230332058004D6178696D756D20666587
:10139000656472617465732028756E6974732F7348
:1013A000293A0A00204500205A0020590020204DEB
:1013B000393220580053746570732070657220753F
:1013C0006E69743A0A0020204D3230302044300AD1
:1013D0000020204D32303020543120440020204D58
:1013E0003230302044002044697361626C65640AC5
:1013F0000046696C616D656E742073657474696E06
:1014000067733A002020473231202020203B2055AE
:101410006E69747320696E206D6D0A0000002000F3
:101420002300260029002C002F00320000010000BC
:101430000301060109010505050507050808080857
:10144000020202020A0A080804040404010101015C
:101450000101010103030303030303030407070757
:101460000C0C0C0C0C0C0C0C0202020206060606FC
:10147000060606060B0B0B0B0B0B0B0B01021020C9
:1014800020080810204010204080020102010804BA
:10149000020101020408102040808040201008044E
:1014A00002018004020180402010080402010804A7
:1014B00002010102040810204080010204081020EB
:1014C000408000000A0B02090C0D0E0807030401FE
:1014D000000000000000000000000000000000000C
:1014E00000000000000000000000000000001211D9
:1014F00010000000000000000000000000000000DC
:1015000000000000000000004B494C4C45442E20D8
:1015100000202D20496E76616C69642065787472B4
:1015200075646572206E756D62657220210A0045D2
:1015300072726F723A002020506C616E6E6572425A
:10154000756666657242797465733A20002046724A
:101550006565204D656D6F72793A2000436F6D703F
:10156000696C65643A20417567203134203230312E
:10157000370A00207C20417574686F723A205669E2
:101580006A6179205261676861760A0032303137CA
:101590002D30372D30342031323A303000204C613C
:1015A000737420557064617465643A2000312E3183
:1015B0002E340A004D61726C696E0020536F6674A0
:1015C000776172652052657365740A0020576174F3
:1015D0006368646F672052657365740A0020427205
:1015E0006F776E206F75742052657365740A0020E2
:1015F00045787465726E616C2052657365740A007B
:10160000506F77657255700A0073746172740A00C6
:10161000205A3A0020593A0020583A00656E647307
:10162000746F7073206869743A20006563686F3A5C
:101630000000004842000048420000A041000000B5
:10164000001000600350012C0190012201D001180C
:101650000110020E0170020401E002FA006003F0C2
:10166000000004E600B004DC00A005D200B006C80B
:10167000000008BE00A009B400800BAA00D00DA095
:101680000090109600C0138C0070178200901B7899
:101690000010206E00C0246400E02D500080353C16
:1016A00000A03A2800A03D1400003F0000A03FEC3D
:1016B000FF6265640A002C2073797374656D207372
:1016C000746F7070656421204865617465725F494C
:1016D000443A20004572723A204D494E54454D50CF
:1016E000004D494E54454D502074726967676572CC
:1016F0006564004572723A204D415854454D500082
:101700004D415854454D5020747269676765726544
:10171000640000002100240027002A002D00300072
:10172000330001010000040107010A01000022004A
:10173000250028002B002E0031003400020100009B
:10174000050108010B016F6B0020746F6F206C6F37
:101750006E6720657874727573696F6E207072653C
:1017600076656E7465640A0020636F6C642065782A
:1017700074727573696F6E2070726576656E7465CC
:10178000640A00627573793A20706175736564202C
:10179000666F7220696E7075740A00627573793AAB
:1017A0002070617573656420666F72207573657251
:1017B0000A00627573793A2070726F63657373699A
:1017C0006E670A004B494C4C45442E20004B494C57
:1017D0004C2063617573656420627920746F6F209B
:1017E0006D75636820696E616374697665207469DC
:1017F0006D65202D2063757272656E7420636F6D48
:101800006D616E643A20005072696E746572206872
:10181000616C7465642E206B696C6C28292063618F
:101820006C6C6564210A00000000000000000000EC
:1018300000AF435761726E696E673A20486F6D69F9
:101840006E672042756D702044697669736F7220EF
:101850003C20310A000202040000A0400000A04029
:10186000000000400000A54300007A430000AF43A1
:10187000FFFF012066697273740A005A005900580C
:1018800000486F6D65200041637469766520457876
:101890007472756465723A20004E6F206D6F7665C4
:1018A000206F6E20746F6F6C6368616E67650A00ED
:1018B0004572726F722077726974696E6720746FF7
:1018C00020454550524F4D210A00526573656E64A4
:1018D0003A200000DA7011241FBECFEFD1E2DEBF44
:1018E000CDBF00E00CBF13E0A0E0B2E0E8E3F0E021
:1018F00001E00BBF02C007900D92AC32B107D9F7DF
:101900002DE0ACE2B3E001C01D92AF32B207E1F7C7
:101910001CE0CBE6DCE000E006C021970109802F47
:10192000FE010E94E97FCA36D10780E00807A9F7C7
:101930000E940C710C941A800C9400002F923F921C
:101940004F925F926F927F928F929F92AF92BF92CF
:10195000CF92DF92EF92FF920F931F93CF93DF937B
:10196000CDB7DEB7C65AD1090FB6F894DEBF0FBEA9
:10197000CDBF0091770B20E6029F800111240E5A03
:101980001C4F8091130B80FF1AC0EBE2F6E18491AB
:101990007F013FEFE31AF30A811102C0780104C00E
:1019A0000E946230F701F3CFD7018D917D0188232A
:1019B00019F00E946230F8CF8AE00E94623081E024
:1019C00090E09093530C8093520C10924B03109222
:1019D0004A038FE38093DA041092D9041092D8045A
:1019E0001092460310924703109248031092490345
:1019F000F80180810F5F1F4F8032D1F38E34B1F434
:101A0000818190ED980F9A3020F08D3211F08B3259
:101A100069F43296DF0131962C9120532A30D0F3AD
:101A2000CD01FC01019620812032D9F3F0935A0CAC
:101A3000E093590C7F01BFEFEB1AFB0A10816AE2B9
:101A400070E0C7010E94F17F009731F0FC013197EF
:101A500080818032E1F311821D3429F0143519F0B0
:101A6000173409F0CDC0F70180812FEFE21AF20A96
:101A70008032C9F380538A3008F0C2C01093DA0470
:101A80002091D8043091D9044AE03196429FC00198
:101A9000439F900D1124DF0111972C91022E000C11
:101AA000330B20533109280F391F808180538A302E
:101AB00060F33093D9042093D804DF0131968C91E0
:101AC0008032D9F31D34D1F42E31310591F03CF43C
:101AD0002731310571F02C31310581F40AC02537E9
:101AE000310564F02737310524F0203A43E034070C
:101AF00029F4B0934B03A0934A0382C010924B0386
:101B000010924A030091590C61E070E0CD010196FA
:101B10004C91442309F474C0413299F41D3489F482
:101B20002032310571F490934B0380934A0363E2B2
:101B300070E00E94F17F009709F462C0DC011C9202
:101B40005FC0EFEBDE2ED40EE9E1ED15C0F1FC0134
:101B5000BE2FAF2F51915032D9F38B2F9A2FE0ED3A
:101B6000E50FEA3040F0E3EDE50FE23020F05B32C4
:101B700011F00C943729DC01AD2CB12C750153E028
:101B8000F594E7945A95E1F7A7014A5B5C4F7A0117
:101B90004D2D4770FB0102C0EE0FFF1F4A95E2F783
:101BA000AF01F7015081452B4083109711F0A01B26
:101BB00001C0A0E0F501E45DFC4FA0830AC04091A4
:101BC0004A0350914B03452B21F4B0934B03A09350
:101BD0004A03DC014C9141544A3110F4DC0196CFA8
:101BE000FC01DF0131969C9190539A30D0F3AD0106
:101BF000CA014F5F5F4FDC01EC91E032C9F3EECFD9
:101C00008091DA048D3409F452C7843511F40C94B0
:101C1000EE28873411F00C9419298091D804909102
:101C2000D9048430910509F4AAC554F497FF02C081
:101C30000C94302920913D0282309105FCF414C0AF
:101C40008A35910509F46BC62CF44C9709F4D4C578
:101C50000C9430298B35910509F465C68C359105B6
:101C600009F466C60C943029222311F40C9430290F
:101C70000E94E82F0E94CD6D0C943029222311F48C
:101C80000C94302911E0029709F010E00E94E82F2F
:101C900082E50E94622F882309F45CC10E94F32E22
:101CA0006B017C014090790B50907A0B60907B0B1C
:101CB00070907C0B20917D0B30917E0B40917F0BBF
:101CC0005091800B62962CAF3DAF4EAF5FAF6297E5
:101CD00080916F0C9091700CA091710CB091720C6E
:101CE00066968CAF9DAFAEAFBFAF66972091730C79
:101CF0003091740C4091750C5091760C6E962CAF0F
:101D00003DAF4EAF5FAF6E9720E030E0A901C70155
:101D1000B6010E94CB78882309F417C5A30192016C
:101D200066966CAD7DAD8EAD9FAD66970E94CB780B
:101D3000811111C062962CAD3DAD4EAD5FAD629785
:101D40006E966CAD7DAD8EAD9FAD6E970E94CB78DB
:101D5000882309F4FAC420E030E0A901C701B601E4
:101D60000E94CB78881F8827881F18130BC080E03B
:101D700090E0A0E8BFE3AA968CAF9DAFAEAFBFAF37
:101D8000AA970AC020E030E040E85FEBAA962CAFAB
:101D90003DAF4EAF5FAFAA97A301920166966CADBF
:101DA0007DAD8EAD9FAD66970E94E17CA2966CAF33
:101DB0007DAF8EAF9FAFA29762962CAD3DAD4EAD7D
:101DC0005FAD62976E966CAD7DAD8EAD9FAD6E973B
:101DD0000E94E17CA6966CAF7DAF8EAF9FAFA697B9
:101DE000A2962CAD3DAD4EAD5FADA297CA01B90133
:101DF0000E9430794B015C01A6962CAD3DAD4EADF5
:101E00005FADA697CA01B9010E9430799B01AC0170
:101E1000C501B4010E94E27C0E944D7F6A966CAFBE
:101E20007DAF8EAF9FAF6A9720E030E040E05FE388
:101E30000E9430794B015C01A7019601C701B601F0
:101E40000E9430796B017C01A5019401C501B401A8
:101E50000E9430799B01AC01C701B6010E94E17C70
:101E60000E944D7F9B01AC01AA966CAD7DAD8EADFD
:101E70009FADAA970E9430794B015C0166962CAD0C
:101E80003DAD4EAD5FAD6697C301B2010E94E27CED
:101E900020E030E040E05FE30E9430796B017C019C
:101EA000A6966CAD7DAD8EAD9FADA69790586A9607
:101EB0002CAD3DAD4EAD5FAD6A970E94BE7D9B01DE
:101EC000AC01C501B4010E9430799B01AC01C7018E
:101ED000B6010E94E27CA30192010E94E17C6B01A9
:101EE0007C016E962CAD3DAD4EAD5FAD6E976296AA
:101EF0006CAD7DAD8EAD9FAD62970E94E27C20E01F
:101F000030E040E05FE30E9430792B013C016A96AB
:101F10002CAD3DAD4EAD5FAD6A97A2966CAD7DAD7B
:101F20008EAD9FADA2970E94BE7D9B01AC01C50105
:101F3000B4010E9430799B01AC01C301B2010E943F
:101F4000E27C62962CAD3DAD4EAD5FAD62970E94D6
:101F5000E17C14C089E40E94622F882329F00E944A
:101F6000F32E6B017C0103C0C12CD12C76018AE4D5
:101F70000E94622F8823F9F00E94F32E6E966CAFB8
:101F80007DAF8EAF9FAF6E9720E030E0A901C70113
:101F9000B6010E94CB7881111EC020E030E0A9017B
:101FA0006E966CAD7DAD8EAD9FAD6E970E94CB7879
:101FB000811111C0CAC320E030E0A901C701B601F8
:101FC0000E94CB78882309F4C0C36E961CAE1DAE68
:101FD0001EAE1FAE6E97D701C601B05862968CAF89
:101FE0009DAFAEAFBFAF62976E962CAD3DAD4EAD1F
:101FF0005FAD6E97505866962CAF3DAF4EAF5FAF5A
:1020000066979C01AD01BC01CD010E9430794B0166
:102010005C0166962CAD3DAD4EAD5FAD6697CA01D5
:10202000B9010E9430799B01AC01C501B4010E9445
:10203000E27C0E944D7FEA966CAF7DAF8EAF9FAF82
:10204000EA978091790B90917A0BA0917B0BB091DC
:102050007C0B6A968CAF9DAFAEAFBFAF6A97A701FE
:102060009601BC01CD010E94E27CAA966CAF7DAFC7
:102070008EAF9FAFAA9720917D0B30917E0B409140
:102080007F0B5091800BA2962CAF3DAF4EAF5FAF50
:10209000A2976E962CAD3DAD4EAD5FAD6E97A296FC
:1020A0006CAD7DAD8EAD9FADA2970E94E27CAE96E9
:1020B0006CAF7DAF8EAF9FAFAE9780916F0C90915C
:1020C000700CA091710CB091720CE2968CAF9DAF28
:1020D000AEAFBFAFE297AA962CAD3DAD4EAD5FADB2
:1020E000AA97BC01CD010E94E17C6B017C0120918B
:1020F000730C3091740C4091750C5091760CE696EF
:102100002CAF3DAF4EAF5FAFE697AE962CAD3DAD79
:102110004EAD5FADAE97E6966CAD7DAD8EAD9FAD2D
:10212000E6970E94E17C4B015C018091810B9091CC
:10213000820BA091830BB091840BC258DF4F888330
:102140009983AA83BB83CE57D0409C01AD01609197
:10215000770C7091780C8091790C90917A0C0E9498
:10216000E17CA6966CAF7DAF8EAF9FAFA697209116
:102170007B0C30917C0C40917D0C50917E0CEE9646
:102180002CAF3DAF4EAF5FAFEE978091850B909136
:10219000860BA091870BB091880BCE57DF4F8883B9
:1021A0009983AA83BB83C258D040A7019601629647
:1021B0006CAD7DAD8EAD9FAD62970E9430792B01E5
:1021C0003C01A501940166966CAD7DAD8EAD9FADD1
:1021D00066970E9430799B01AC01C301B2010E9455
:1021E000E27C2B013C01A501940162966CAD7DADB2
:1021F0008EAD9FAD62970E9430794B015C01A701C3
:10220000960166966CAD7DAD8EAD9FAD66970E94D2
:1022100030799B01AC01C501B4010E94E17CA301AE
:1022200092010E94557D6B017C0120E030E0A90104
:102230000E94CB7887FF0AC02BED3FE049EC50E4C9
:10224000C701B6010E94E27C6B017C01112351F0B1
:102250002BED3FE049EC50E4C701B6010E94E17C60
:102260006B017C0120E030E0A901C701B6010E94AA
:10227000CB78811128C0E2962CAD3DAD4EAD5FAD5F
:10228000E2976A966CAD7DAD8EAD9FAD6A970E9468
:10229000CB78811118C0E6962CAD3DAD4EAD5FAD4B
:1022A000E697A2966CAD7DAD8EAD9FADA2970E94D4
:1022B000CB78811108C04BEDC42E4FE0D42E49ECF1
:1022C000E42E40E4F42EEA962CAD3DAD4EAD5FAD6C
:1022D000EA97C701B6010E9430799B01AC010E94C8
:1022E00030794B015C01A6962CAD3DAD4EAD5FAD96
:1022F000A697CA01B9010E9430799B01AC01C501C2
:10230000B4010E94E27C0E944D7F4B015C012FE6EC
:1023100032E143E85AE30E94CB7887FD12C2C5013F
:10232000B4010E94577E0E942B7EA0967FAF6EAFB5
:10233000A097DB01AB2B31F4E1E0F0E0A096FFAF1A
:10234000EEAFA097A0962EAD3FADA097B90180E06B
:1023500090E00E94CF784B015C019B01AC01C7016A
:10236000B6010E94BE7D6A966CAF7DAF8EAF9FAF07
:102370006A97A5019401A6966CAD7DAD8EAD9FAD1B
:10238000A6970E94BE7DEA966CAF7DAF8EAF9FAFE1
:10239000EA97CE57DF4F288139814A815B81C25845
:1023A000D040EE966CAD7DAD8EAD9FADEE970E94A8
:1023B000E17CA50194010E94BE7DEE966CAF7DAFDD
:1023C0008EAF9FAFEE976A962CAD3DAD4EAD5FAD33
:1023D0006A97CA01B9010E94307920E030E040E0FC
:1023E0005FE30E9430799B01AC0160E070E080E81F
:1023F0009FE30E94E17CA6966CAF7DAF8EAF9FAF4E
:10240000A697C258DF4F88819981AA81BB81CE5798
:10241000D04089879A87AB87BC87CE57DF4F28810A
:1024200039814A815B81C258D0402D873E874F87D2
:10243000588B60914F0270915002072E000C880B50
:10244000990B0E94D1782091390230913A02409143
:102450003B0250913C020E9430792AE037ED43E282
:102460005CE30E943079E2966CAF7DAF8EAF9FAF98
:10247000E2970E9457639B01AC0128533F4F4F4F97
:102480005F4FE6962CAF3DAF4EAF5FAFE6972F960E
:102490004FAC2F9760965FAC609761966FAC619779
:1024A00062967FAC629722242394312C39E1D32E9B
:1024B000A0964EAD5FADA0972416350609F42DC148
:1024C0000E9414670E945763DC01CB01E6962CAD95
:1024D0003DAD4EAD5FADE697821B930BA40BB50BE4
:1024E000B7FD10C00E9457639B01AC0128533F4FBA
:1024F0004F4F5F4FE6962CAF3DAF4EAF5FAFE697C5
:102500000E94D26ADA94DD2009F44BC0A6962CAD65
:102510003DAD4EAD5FADA69766966CAD7DAD8EAD13
:102520009FAD66970E9430794B015C016A962CAD95
:102530003DAD4EAD5FAD6A97B201C3010E943079E7
:10254000A50194010E94E27C7B018C01A6962CAD32
:102550003DAD4EAD5FADA697B201C3010E9430798B
:102560004B015C016A962CAD3DAD4EAD5FAD6A97F7
:1025700066966CAD7DAD8EAD9FAD66970E9430794D
:102580009B01AC01C501B4010E94E17C2B013C011F
:10259000C701D80166968CAF9DAFAEAFBFAF66974F
:1025A0005BC0B10180E090E00E94CF786A962CADCC
:1025B0003DAD4EAD5FAD6A970E9430794B015C0135
:1025C0000E94BB7D6B017C01C501B4010E94437F69
:1025D0004B015C01A701960162966CAD7DAD8EAD9D
:1025E0009FAD62970E9430792B013C01A5019401B7
:1025F0006E966CAD7DAD8EAD9FAD6E970E943079BD
:102600009B01AC01C301B2010E94E27C2B013C01A1
:10261000A501940162966CAD7DAD8EAD9FAD6297C4
:102620000E9430794B015C01A70196016E966CAD5A
:102630007DAD8EAD9FAD6E970E9430799B01AC0150
:10264000C501B4010E94E17C66966CAF7DAF8EAF90
:102650009FAF669799E1D92E9201A301AA966CAD1E
:102660007DAD8EAD9FADAA970E94E27C69837A838F
:102670008B839C8366962CAD3DAD4EAD5FAD66976A
:10268000AE966CAD7DAD8EAD9FADAE970E94E27CF7
:102690006D837E838F839887EA962CAD3DAD4EADDA
:1026A0005FADEA9769857A858B859C850E94E27C7F
:1026B00069877A878B879C87EE962CAD3DAD4EADB2
:1026C0005FADEE976D857E858F8598890E94E27C4F
:1026D0006D877E878F87988B80914E02882321F0AB
:1026E000CE0101960E941C69C0909A0CE296ECAC57
:1026F000FDAC0EAD1FADE2979E01235F3F4FAE01D3
:10270000475F5F4FBE016B5F7F4FCE0101960E9416
:10271000D4433FEF231A330ACBCEC0909A0CE296F3
:10272000ECACFDAC0EAD1FADE2972BE73CE047E70C
:102730005CE063E77CE08FE69CE00E94D4430E946B
:102740005B2D0E9457300C943029EFE2F5E1849123
:102750008F010F5F1F4F882321F00E946230F80124
:10276000F6CFE9EDF1E084918F010F5F1F4F8823D1
:1027700011F40C9430290E946230F801F4CF80E506
:102780000E94622F882329F00E94B32E6B017C01E6
:1027900003C0C12CD12C760183E50E94622F8823CF
:1027A00061F00E94F32E20E030E04AE754E40E94FA
:1027B00030790E942B7E6B017C010E946C680E9424
:1027C000573080915B0C90915C0CA0915D0CB091A6
:1027D0005E0CC80ED91EEA1EFB1E0E945763DC0168
:1027E000CB018C199D09AE09BF09B7FD02C00C943D
:1027F00030290E94D26AF1CF0E946C68D0909A0C66
:1028000021E040E050E0BA0180E00E94C46E809177
:10281000390290913A02A0913B02B0913C02809320
:10282000D4049093D504A093D604B093D704809198
:102830004F02909150029093D3048093D20484E687
:1028400090E09093500280934F020E94573081E0B5
:102850008093380288E50E94262FE82E89E50E94A1
:10286000262F082F8AE50E94262FF82EE11005C09A
:10287000011105C011E0182705C0011102C010E0C8
:1028800001C0182F0E94512D111105C0F11003C075
:10289000E11007C00CC082E090E00E94AE691123F5
:1028A000B9F380E090E00E94AE69111102C00023EC
:1028B00021F081E090E00E94AE690E94F52D8091A8
:1028C0001D0B809338028091D4049091D504A0917F
:1028D000D604B091D7048093390290933A02A09322
:1028E0003B02B0933C028091D2049091D304909328
:1028F000500280934F020E94573051E05D1520F442
:102900008D2D0E947D3107C021E040E050E0BA01EA
:102910008D2D0E94C46E0E944F340C943029109269
:1029200051030C94302981E0809351030C94302999
:1029300085E40E94622F982E811102C00E946C686B
:1029400013E6A12E12E0B12E09E7C02E0BE0D02E27
:102950008EE8E82E8CE0F82E00E010E0812CD50106
:102960008D915D010E94622F882309F44EC0F6010B
:102970002081318142815381CD55DF4F2883C35A55
:10298000D040CC55DF4F3883C45AD040CB55DF4FB1
:102990004883C55AD040CA55DF4F5883C65AD040E5
:1029A0000E94F32ED6016D937D938D939C93139784
:1029B000CD55DF4F2881C35AD040CC55DF4F3881E9
:1029C000C45AD040CB55DF4F4881C55AD040CA5574
:1029D000DF4F5881C65AD04003301105B1F00E9434
:1029E000E17C9B01AC01F70160817181828193815F
:1029F0000E94E27CD7016D937D938D939C931397F6
:102A0000C8010E949D2D882483940F5F1F4FB4E05E
:102A1000CB0ED11CE4E0EE0EF11C0430110509F0E0
:102A20009ECF882019F00E94F52D75CF992009F4CA
:102A300072CFC090850BD090860BE090870BF09002
:102A4000880B209183053091840540918505509134
:102A50008605C701B6010E9430790E94137F6093FA
:102A6000B90B7093BA0B8093BB0B9093BC0BC092C5
:102A7000A90BD092AA0BE092AB0BF092AC0BC70162
:102A8000B6010E94267E2FB7F8946093DF0B7093F7
:102A9000E00B8093E10B9093E20B2FBF1092990B08
:102AA00010929A0B10929B0B10929C0B34CF80913A
:102AB000D8049091D9048837910509F4ABC50CF07E
:102AC00084C08836910509F435C30CF045C08D34B7
:102AD000910509F42BC3CCF48F31910509F4F7C1AA
:102AE0004CF48131910509F4E4C1429709F4E5C43D
:102AF0000C9430298B34910509F4FAC20CF0FCC215
:102B00008A9709F4B6C20C9430298335910509F4EB
:102B1000CFC46CF48135910509F4A7C482359105C1
:102B200011F00C943029109250030C943029853503
:102B3000910509F4C6C40CF4C0C48C35910511F09C
:102B40000C94302933E6C32E32E0D32E47E7E42E2F
:102B500045E0F42E10E0D0C48F36910509F430C35F
:102B6000B4F48B36910509F46EC454F4893691059A
:102B700009F40BC48A36910509F446C40C94302933
:102B80008D36910509F422C40CF4B0C306C3823714
:102B9000910509F431C554F48037910509F4AAC3AD
:102BA0008137910509F4AEC30C943029863791051D
:102BB00009F428C50CF02AC58337910511F00C944F
:102BC00030290E949A300C943029823E910509F4F4
:102BD000E2C70CF04DC08C3C910509F4CFC5ECF474
:102BE0008B39910509F4EEC354F48937910509F442
:102BF00018C58C38910509F4B1C30C943029893C6F
:102C0000910509F47BC58B3C910509F499C5883C75
:102C1000910511F00C9430290AC5833D910509F402
:102C2000E7C6C4F48D3C910509F414C68E3C9105A9
:102C300011F00C94302963E6A62E62E0B62E79E7F7
:102C4000C72E7BE0D72EEAE4EE2EEBE0FE2E00E06E
:102C500010E079C68C3D910509F472C78D3D910550
:102C600009F47DC78A3D910511F00C94302959C7AC
:102C70008C3AF1E09F0709F490C63CF58F3231E0C1
:102C8000930711F40C94F01E64F48D3251E0950713
:102C900009F4B0C78E32914011F40C94991E0C9433
:102CA00030298039B1E09B0711F40C9445228A3910
:102CB000E1E09E0709F422C38336914011F00C94A1
:102CC0003029EFE2F5E10C94EB26873F21E09207F3
:102CD00011F40C94C3250CF0D9C0853F41E0940752
:102CE00011F40C94BD2514F00C94C025843F914040
:102CF00011F00C9430291EAA1FAA18AE19AE80E359
:102D000090E3A0E3B0E08AAB9BABACABBDAB269647
:102D10001FAE1EAE269784E690E024969FAF8EAF3E
:102D2000249710921C0B9E012C5B3F4F44E050E017
:102D3000BE016E5C7F4FCE018E5B9F4F0E94AF68DD
:102D400024968EAD9FAD2497029624969FAF8EAFAA
:102D5000249726961FAE1EAE269781E02E968FAF43
:102D60002E979E012C5B3F4F41E050E0BE01635B1C
:102D70007F4FCE018E5B9F4F0E94AF689E012C5B00
:102D80003F4F40E150E067E775E0CE018E5B9F4F1B
:102D90000E94AF689E012C5B3F4F40E150E065EF21
:102DA0007AE0CE018E5B9F4F0E94AF689E012C5B44
:102DB0003F4F40E150E067E675E0CE018E5B9F4FEC
:102DC0000E94AF689E012C5B3F4F44E050E06DEEE7
:102DD0007AE0CE018E5B9F4F0E94AF689E012C5B14
:102DE0003F4F44E050E061EF7AE0CE018E5B9F4FB1
:102DF0000E94AF689E012C5B3F4F44E050E069EEBB
:102E00007AE0CE018E5B9F4F0E94AF689E012C5BE3
:102E10003F4F44E050E06DE07BE0CE018E5B9F4F82
:102E20000E94AF689E012C5B3F4F44E050E069E098
:102E30007BE0CE018E5B9F4F0E94AF689E012C5BB2
:102E40003F4F44E050E065E07BE0CE018E5B9F4F5A
:102E50000E94AF689E012C5B3F4F40E150E069ED5E
:102E60007AE0CE018E5B9F4F0E94AF689E012C5B83
:102E70003F4F4CE050E06AE47BE0CE018E5B9F4F19
:102E80000E94AF6800E010E00C94D522863EB3E0CB
:102E90009B0711F40C940227873EE3E09E0711F490
:102EA0000C94EC288438934011F00C9430290C9445
:102EB000D1255F988A989FB7F894809108018E7FFA
:102EC000809308019FBF129847980C9430298091F5
:102ED000BF0B9091C00B019719F40E94576308C073
:102EE0006091C90B7091CA0B8091CB0B9091CC0B68
:102EF0000091C50B1091C60B2091C70B3091C80BE8
:102F0000601B710B820B930B28EE33E040E050E026
:102F10000E94A67C8091C10B9091C20BA091C30B23
:102F2000B091C40BBC01CD01620F731F841F951FAC
:102F3000BCE3CB2ED12CE12CF12CA70196010E94F1
:102F4000A67C162F072FCA01B901A70196010E947E
:102F5000A67C4B015C01CA01B90128E130E040E0E8
:102F600050E00E94A67C2B013C01C9016DE671E096
:102F70000E94A67F9E012F5F3F4F79016115710569
:102F800099F00F931F939F928F925F924F929F930E
:102F90008F937F936F9387E192E09F938F933F93FB
:102FA0002F930E949C7826C0009789F00F931F935F
:102FB0009F928F925F924F929F938F9387E092E0C0
:102FC0009F938F933F932F930E949C7813C041143B
:102FD000510461047104B1F00F931F939F928F927B
:102FE0005F924F928BEF91E09F938F933F932F933C
:102FF0000E949C780FB6F894DEBF0FBECDBFEBE207
:10300000F6E123C081149104A104B10469F00F9387
:103010001F939F928F9283EF91E09F938F933F93A3
:103020002F930E949C78E6CF0F931F938FEE91E031
:103030009F938F933F932F930E949C780F900F90B4
:103040000F900F900F900F90DACF84918F010F5F48
:103050001F4F882321F00E946230F801F6CFB7019C
:103060008BE292E00E94983F8AE00E9462300C94CA
:10307000302983E50E94622F882311F40C943029B3
:103080000E94D32EE82E80E50E94622F882339F01B
:103090000E94C32E8B0177FF04C00C9430290DE0F1
:1030A00010E0902FEDE3F3E080E38E0F2491921770
:1030B00029F031968E13FACF0C944729EFE2F5E10F
:1030C00084918F010F5F1F4F882321F00E9462308F
:1030D000F801F6CFE8E3F2E084918F010F5F1F4F14
:1030E000882311F40C9430290E946230F801F4CF47
:1030F0000E94605F0C9430298091BF0B9091C00BAF
:10310000019711F00C94302982E090E09093C00B6D
:103110008093BF0B0E9457636093C90B7093CA0BD7
:103120008093CB0B9093CC0B0C9430290E94E35EE0
:103130000C94302988E690E00E94A13181110C9412
:1031400030298091130B83FF02C00C94302983E552
:103150000E94622F8823E9F00E94F32E20914C03F5
:1031600030E0220F331F89010251144F0E94267E46
:10317000D8016D937C930E94F32E20E030E04AEA60
:1031800052E40E94CB78181614F00E94E35E0E946D
:10319000F32E0E94C03F0C9430298EE40E94622FCF
:1031A000882311F40C9430290E94C32E6093250DBE
:1031B0007093260D8093270D9093280D0C94302941
:1031C00083E50E94622F882319F00E94D32E01C04C
:1031D00080E08093130BEBE2F6E184918F010F5FA7
:1031E0001F4F882321F00E946230F801F6CFE5E5F9
:1031F000F2E084918F010F5F1F4F882321F00E941E
:103200006230F801F6CF8091130B8823A1F1F7E427
:10321000CF2EF2E0DF2EE12CF12C20E08091130B79
:1032200090E00E2C02C0959587950A94E2F780FFF6
:1032300017C0BB24B394B20E222319F08CE20E9473
:103240006230F60125913491F901849189010F5F73
:103250001F4F882321F00E9462309801F5CF2B2D5B
:10326000FFEFEF1AFF0A32E0C30ED11C45E0E4166F
:10327000F104A1F636C0E1E5F2E084918F010F5F21
:103280001F4F882371F10E946230F801F6CF0EE1E2
:103290001BE080E20E946230D8016D917D918D919A
:1032A0009D918D0142E00E94DE338CE20E946230EB
:1032B000F801648175818681978142E00E94DE3346
:1032C0008CE20E946230D8011C966D917D918D91A7
:1032D0009C911F9742E00E94DE33BBE006321B0741
:1032E000C1F68AE00E9462300C94302910920002EC
:1032F0000C9430298CE592E00E94A46A0E94FF2D74
:103300000C94302983E50E94622F882369F00E9483
:10331000D32E809351028D3310F40C9430298CE31A
:10332000809351020C943029EBE2F6E184918F01F5
:103330000F5F1F4F882321F00E946230F801F6CF03
:103340004091510250E060E070E085E692E00E941A
:10335000013F8AE00E9462300C9430298091130B67
:1033600083FF02C00C94302983E50E94622F8823DA
:1033700011F40C9430290E94F32E0E94267E709343
:10338000EC0B6093EB0B0C94302989E690E00E94E3
:10339000A131811111C0ECE6F2E084918F010F5F41
:1033A0001F4F882321F00E946230F801F6CF0E945F
:1033B0002E358AE00E9462301092530C1092520C0B
:1033C0000C94EC2C0E94BC2F0C9430298DE690E0DC
:1033D0000E94A13181110C9430298091130B83FF3D
:1033E00002C00C94302983E50E94622F6B968FAF48
:1033F0006B9781110C945C2982E50E94622F8111E8
:103400000C945C290C94302983E50E94622F882358
:1034100039F00E94C32E8B016F3F710519F010F037
:103420000FEF10E080E50E94622F811106C010931B
:10343000120B0093110B0C9430290E94D32E811192
:103440000C943029F4CF80E50E94622F811106C0D0
:103450001092120B1092110B0C9430290E94C32E63
:10346000672B11F00C943029F3CF0E94A5640E94C1
:103470006C680E94946A1092120B1092110B00E07B
:1034800010E062E370E080E090E00E941F630E9421
:1034900014670F5F1F4F0331110599F762E370E066
:1034A00080E090E00E941F630E9414670C94302912
:1034B00081E0809350030C9430290E946E2F0C946D
:1034C000302983E50E94262F882311F40C9430299B
:1034D0000E94F32E20E030E04AE754E40E94307965
:1034E0000E942B7E60935F0C7093600C8093610C44
:1034F0009093620C0C943029D6018D916D010E943D
:10350000262F882309F46DC0133009F063C00E9490
:10351000F32E4B015C0120E030E040EA51E40E94D0
:10352000CB7887FF4EC0A50194016091830570910F
:10353000840580918505909186050E94BE7D2B01B2
:103540003C019B01AC016091E50A7091E60A809113
:10355000E70A9091E80A0E9430796093E50A709337
:10356000E60A8093E70A9093E80AA301920160912A
:10357000010B7091020B8091030B9091040B0E9440
:1035800030796093010B7093020B8093030B90933F
:10359000040B6091630570916405809165059091BD
:1035A00066050E94CF78A30192010E9430790E94A3
:1035B0002B7E6093630570936405809365059093FB
:1035C00066058092830590928405A0928505B0924D
:1035D000860507C00E94F32EF70160837183828302
:1035E00093831F5FF4E0EF0EF11C143009F084CFD9
:1035F0000E9460410C9430290E946C680E944F34F4
:103600000C9430290E9469300C9430290E94835414
:103610000C94302981E08093380280931D0B0C9428
:1036200030291092380210921D0B0C94302988EC2E
:1036300090E00E94A13181110C94302984E40E9411
:10364000262F882309F456C00E94F32E11E020E0B3
:1036500030E0A9010E94CB78811101C010E01093E5
:10366000360B112309F446C000914C0310E00E9470
:10367000F32E000F111F000F111FF801E85DFD4F21
:10368000608371838283938320E030E0A90160919D
:1036900028027091290280912A0290912B020E94A7
:1036A000CB7881110CC080E090E0A0E4B0E480937E
:1036B000280290932902A0932A02B0932B0220E0C3
:1036C00030E0A90160912C0270912D0280912E02B0
:1036D00090912F020E94CB7881110CC080E090E085
:1036E000A0E4B0E480932C0290932D02A0932E02CC
:1036F000B0932F020E943B6D0C943029B7E6EB2E5D
:10370000B5E0FB2E03E612E084E0D82ED00ED801FF
:103710008D918D010E94262F882349F00E94F32E5F
:103720000E942B7EF7016083718382839383F4E090
:10373000EF0EF11CD012EBCF0E94F03F0C94302919
:10374000F5EFEF2EFAE0FF2E03E612E0A4E0DA2E0A
:10375000D00ED8018D918D010E94262F882339F03B
:103760000E94F32EF7016083718382839383F4E0D8
:10377000EF0EF11CD012EDCF0C94302983E50E949E
:10378000262F8823D9F00E94F32EAB01BC01409371
:10379000ED0A5093EE0A6093EF0A7093F00A40939B
:1037A000E90A5093EA0A6093EB0A7093EC0A8DECF5
:1037B00092E00E943B3F8AE00E94623080E50E94D6
:1037C000262F882399F00E94F32EAB01BC01409371
:1037D000ED0A5093EE0A6093EF0A7093F00A80EBC3
:1037E00092E00E943B3F8AE00E94623082E50E94A4
:1037F000262F882399F00E94F32EAB01BC01409341
:10380000F10A5093F20A6093F30A7093F40A81E983
:1038100092E00E943B3F8AE00E94623084E50E9471
:10382000262F882311F40C9430290E94F32EAB012B
:10383000BC014093E90A5093EA0A6093EB0A709343
:10384000EC0A83E792E00E943B3F8AE00E946230EC
:103850000C94302983E50E94262F882351F00E9482
:10386000F32E60930D0B70930E0B80930F0B9093C0
:10387000100B84E50E94262F882351F00E94F32E1E
:103880006093090B70930A0B80930B0B90930C0BB6
:1038900082E40E94262F882351F00E94B32E609369
:1038A000050B7093060B8093070B9093080B88E52C
:1038B0000E94262F882351F00E94F32E6093D90A8C
:1038C0007093DA0A8093DB0A9093DC0A89E50E9400
:1038D000262F882351F00E94F32E6093DD0A709307
:1038E000DE0A8093DF0A9093E00A8AE50E94262F81
:1038F000882351F00E94F32E6093E10A7093E20A4C
:103900008093E30A9093E40A85E40E94262F88239B
:1039100011F40C9430290E94F32E6093E50A709301
:10392000E60A8093E70A9093E80A0C9430290F5F27
:103930001F4FB4E0CB0ED11CE4E0EE0EF11C0330BF
:10394000110509F44FC0D5018D915D010E94262F0C
:10395000882369F30E94F32E2B013C01F70120819B
:103960003181428153810E94E17C9B01AC01D601EF
:103970006D917D918D919C910E94E27CF601608316
:10398000718382839383D7014D925D926D927C9275
:103990001397C8010E949D2DCACF8AE4C82E8BE0E0
:1039A000D82E99E7E92E9BE0F92E2BE8222E2CE069
:1039B000322E00E010E0D101AB58BC406096BFAFA2
:1039C000AEAF6097F10181911F01811161C5F4E0F3
:1039D000CF0ED11C0C5F1F4F24E0E20EF11C0C3007
:1039E000110549F70E94F52D0E944F340C9430299F
:1039F000EBE2F6E184918F010F5F1F4F882321F0E6
:103A00000E946230F801F6CF83E50E94262F8823BA
:103A100021F00E94E42E80934E02EDE1F3E08491C8
:103A20008F010F5F1F4F882321F00E946230F80141
:103A3000F6CF80914E02811103C0E9E1F3E002C0AC
:103A4000E5E1F3E084918F010F5F1F4F882321F0A0
:103A50000E946230F801F6CFEDE0F3E084918F012F
:103A60000F5F1F4F882321F00E946230F801F6CFCC
:103A700040917F0C5091800C6091810C7091820C70
:103A80008BE093E00E943B3F4091830C5091840C6B
:103A90006091850C7091860C88E093E00E943B3F1A
:103AA0004091870C5091880C6091890C70918A0C20
:103AB00085E093E00E943B3FEDEFF2E084918F01BF
:103AC0000F5F1F4F882321F00E946230F801F6CF6C
:103AD00040915602509157026091580270915902DC
:103AE0008BEF92E00E943B3F40915A0250915B0263
:103AF00060915C0270915D0288EF92E00E943B3F12
:103B000040915E0250915F0260916002709161028B
:103B100085EF92E00E943B3F8AE00E9462300C9465
:103B200030298AED90E00E94A13181110C94302956
:103B300010914C03112311F40C9430290C94CA2ACF
:103B400083E50E94622F882311F40C9430290E948F
:103B5000C32E7093500260934F020C9430298DED68
:103B600090E00E94A13181110C94302983E50E94DC
:103B7000622F882311F40C94302900914C0310E03B
:103B80000E94C32E000F111FF801E45EFD4F7183E8
:103B900060830C94302980E50E94262F882311F43D
:103BA0000C9430290E94C32EF62EC62ED72E83E504
:103BB0000E94622F882321F00E94C32E8B0102C035
:103BC0000FEF1FEFC8010196039710F00C943029F6
:103BD000D7FE02C00C943029EDE3F3E080E38E0FB2
:103BE0009491F91611F40C94302931968E13F8CF74
:103BF0000C94C52C85E40E94622F811110C080E5D1
:103C00000E94262F882391F00E94F32E6093420297
:103C100070934302809344029093450207C00E9430
:103C2000D32E823060F3EFE2F5E172C089E40E94A6
:103C3000262F882381F00E94F32E2CEA35EC47E2F0
:103C40005EE30E94307960933E0270933F0280935E
:103C500040029093410284E40E94262F882381F041
:103C60000E94F32E2CEA35EC47E25EE30E94BE7D13
:103C700060934602709347028093480290934902F2
:103C8000EBE2F6E184918F010F5F1F4F882321F053
:103C90000E946230F801F6CF4091420250914302F7
:103CA000609144027091450285E793E00E943B3F9A
:103CB0002CEA35EC47E25EE360913E0270913F02F0
:103CC00080914002909141020E94BE7DAB01BC01F7
:103CD00081E793E00E941E3F2CEA35EC47E25EE369
:103CE000609146027091470280914802909149028A
:103CF0000E943079AB01BC018DE693E00E941E3F2B
:103D00008AE00E9462300C9430290E946230F801EF
:103D100084918F010F5F1F4F8111F7CF0DEA12E0E1
:103D2000F80181918F01882309F4DBCA0E94623077
:103D3000F7CF83E50E94262F182F882371F00E9469
:103D4000F32E0E94267E709317026093160221E0E4
:103D5000672B09F020E02093D40A80E50E94262FEB
:103D6000882361F02091160230911702232B11F065
:103D70000E94E42E8093D40A0C94302911110C94E3
:103D80003029EBE2F6E184918F010F5F1F4F88230A
:103D900021F00E946230F801F6CF8091D40A81119F
:103DA00003C069EA72E002C06FE173E08EE893E05D
:103DB0000E94983F60911602709117028DE793E080
:103DC0000E947F3FE9E7F3E084918F010F5F1F4F6F
:103DD000882311F40C9430290E946230F801F4CF4A
:103DE00085E40E94622F882321F00E94C32E8B015C
:103DF00002C000E010E083E40E94622F882349F0B3
:103E00000E94C32EC556DF4F79836883CB59D040BB
:103E100008C025E030E0C556DF4F39832883CB59F1
:103E2000D04085E50E94262FCF56DF4F8883C159A9
:103E3000D040882339F00E94E42ECF56DF4F88838C
:103E4000C159D04017FD07C0412C512C26E1622EEC
:103E500023E4722E06C0412C512C9CE8692E92E47A
:103E6000792E83E50E94622F882321F00E94F32E91
:103E70002B013C010230110510F400934C03109209
:103E8000530C1092520C0E9457634B015C0102309C
:103E9000110528F48EEBE82E82E0F82E0FC001ED1C
:103EA00012E0D8018D918D01882319F00E946230B3
:103EB000F8CF8AE00E9462300C943029F70181919A
:103EC0007F01882319F00E946230F8CFC301B2014C
:103ED0000E94267E072E000C880B990B0E94D17839
:103EE000A3966FAFA397A7967FAFA797AB968FAF19
:103EF000AB97AF969FAFAF978AE00E9462300E9467
:103F0000A564F801EC50F44F8FE7808381E0809343
:103F10000002CD56DF4F88829982AA82BB82C359A4
:103F2000D040C356DF4F88829982AA82BB82CD5986
:103F3000D040E3961FAEE39720E4EF962FAFEF97C4
:103F40003CE1CE57DF4F3883C258D04046E4E79675
:103F50004FAFE797EB961FAEEB97CA57DF4F18822C
:103F6000C658D040C957DF4F1882C758D040C857ED
:103F7000DF4F1882C858D040C357DF4F18821982CC
:103F80001A821B82CD58D040C757DF4F1882198242
:103F90001A821B82C958D040C12CD12C7601AFE7C0
:103FA0004A2E512C612C712C8FE790E0A0E0B0E0FC
:103FB0006A968CAF9DAFAEAFBFAF6A97C956DF4F61
:103FC000188219821A821B82C759D04091E0CE56BE
:103FD000DF4F9883C259D040A0961FAE1EAEA09767
:103FE0002F961FAE2F9763961FAE6397212C312C0F
:103FF000000F111F000F111F0D51144FCF55DF4F30
:10400000F983E883C15AD04080910002882309F4E3
:1040100035C20E9457636E966CAF7DAF8EAF9FAF77
:104020006E978091F20B882309F423C10E94E76602
:10403000D801BC912F96BFAF2F97F801F1816396FD
:10404000FFAF6397D80112962C90129713963C906D
:104050002F962FAD2F973F2FA101EB966FADEB97CA
:10406000CA57DF4F7881C658D040C957DF4F888183
:10407000C758D040C857DF4F9881C858D0400E94D9
:10408000CB7887FF18C02F96BFAD2F97EB96BFAFA9
:10409000EB976396EFAD6397CA57DF4FE883C65837
:1040A000D040C957DF4F2882C758D040C857DF4F8C
:1040B0003882C858D0402F962FAD2F9763963FADCA
:1040C0006397A101E3966FADE397EF967FADEF970E
:1040D000CE57DF4F8881C258D040E7969FADE79713
:1040E0000E94087F1816A4F42F96FFAD2F97E39631
:1040F000FFAFE39763962FAD6397EF962FAFEF97E0
:10410000CE57DF4F2882C258D040E7963FAEE797A0
:10411000CE56DF4F3881C259D040A3962FADA3971A
:10412000332309F476C0A7963FADA797AB964FAD62
:10413000AB97AF965FADAF972F966FAD2F97639606
:104140007FAD6397C1010E94087F18160CF091C0E3
:104150006E964CAD5DAD6EAD7FAD6E974819590949
:104160006A097B09DB01CA0188589341A109B10999
:10417000B7FD7FC06A968CAD9DADAEADBFAD6A9701
:1041800084199509A609B709B595A79597958795B7
:10419000CF55DF4FE881F981C15AD0408083C9569D
:1041A000DF4F488359836A837B83C759D040A396E6
:1041B000FFADA397EB96FFAFEB97A7962FADA79711
:1041C000CA57DF4F2883C658D040AB963FADAB9758
:1041D000C957DF4F3883C758D040AF964FADAF9720
:1041E000C857DF4F4883C858D0406E968CAD9DAD00
:1041F000AEADBFAD6E97CD56DF4F88839983AA834E
:10420000BB83C359D040CE56DF4F1882C259D0402D
:1042100030C0A7963FADA797AB964FADAB97AF9683
:104220005FADAF972F966FAD2F9763967FAD639776
:10423000C1010E94CB7887FF1CC06E968CAD9DADEE
:10424000AEADBFAD6E97CD56DF4F288139814A8123
:104250005B81C359D040821B930BA40BB50BAC01FF
:10426000BD01485853416109710977FD02C00C94A2
:10427000172B20E030E040EA51E4A3966FADA397FE
:10428000A7967FADA797AB968FADAB97AF969FAD37
:10429000AF970E94E27C9B01AC012F966FAD2F97E8
:1042A00063967FAD6397C1010E94087F18166CF476
:1042B000EBE5F4E084918F010F5F1F4F882309F431
:1042C000CFC70E946230F801F5CF80E398EFAFEFDF
:1042D000BFEFC356DF4F288139814A815B81CD59B9
:1042E000D040821B930BA40BB50B6E962CAD3DAD4D
:1042F0004EAD5FAD6E97820F931FA41FB51FB7FD24
:1043000013C00E942E358AE00E9462306E968CADFA
:104310009DADAEADBFAD6E97C356DF4F8883998319
:10432000AA83BB83CD59D0406E968CAD9DADAEAD0A
:10433000BFAD6E97880F991FAA1FBB1FCD56DF4FC9
:10434000288139814A815B81C359D040821B930BFC
:10435000A40BB50B88199909AA09BB0981389F4498
:10436000A241B10568F0EDE3F4E084918F010F5FA5
:104370001F4F882309F474C70E946230F801F5CFFB
:10438000A0964EAD5FADA097C556DF4F888199814D
:10439000CB59D040841795070CF036CEE0EEF3E011
:1043A00084918F010F5F1F4F882321F00E9462309C
:1043B000F801F6CFB701A6018BEC93E00E943B3FDA
:1043C0008AE00E946230C757DF4F488159816A8175
:1043D0007B81C958D04086EB93E00E943B3F8AE046
:1043E0000E946230C357DF4F488159816A817B81C7
:1043F000CD58D04081EA93E00E943B3F8AE00E9482
:104400006230CF56DF4F9881C159D040992309F4CB
:1044100027C7C0924202D0924302E0924402F09237
:1044200045022CEA35EC47E25EE3C757DF4F68816F
:1044300079818A819B81C958D0400E9430796093EC
:104440003E0270933F0280934002909341022CEA17
:1044500035EC47E25EE3C357DF4F688179818A819B
:104460009B81CD58D0400E94BE7D609346027093E0
:1044700047028093480290934902F2C6809100025D
:104480008111EEC60E94A564EBC60E946C68E8C666
:10449000D7014D905D906D907C90F801EA5AFD4FE8
:1044A0002081318142815381F801E158F34F6081CD
:1044B0007181828193810E94E27C20E030E040E0C3
:1044C0005FE30E9430799B01AC01C301B2010E94FD
:1044D000087F181644F4F801E95DF74E8590959031
:1044E000A590B49003C0812C912C5401F801ED5992
:1044F000F34F2081318142815381C301B2010E9477
:10450000E17C9B01AC01C501B4010E94E17C4B013F
:104510005C0120E030E040EA51EC0E94087F87FD1A
:104520002BC020E030E040EA51E4C501B4010E9414
:10453000CB7818160CF1F60120813181428153812C
:10454000C501B4010E94E17C9B01AC01C301B20131
:104550000E94E27CD7016D937D938D939C9313977A
:10456000F60180829182A282B38260968EAD9FAD69
:1045700060970E949D2D2BCAEFE2F5E184918F0197
:104580000F5F1F4F882321F00E946230F801F6CFA1
:10459000EFECF4E084918F010F5F1F4F882309F443
:1045A0005FC60E946230F801F5CFB8016E5D744FAE
:1045B0009E012C5B3F4F44E050E0CE018E5B9F4F4D
:1045C0000E94AF68085F1F4F0831110571F780E046
:1045D00090E0A0E2B1E48EA79FA7A8ABB9AB9E0183
:1045E0002C5B3F4F44E050E0BE01625D7F4FCE0147
:1045F0008E5B9F4F0E94AF682D961FAE2D971EAA0F
:104600001FAA18AE19AE83E02C968FAF2C972B966D
:104610008FAF2B979E012C5B3F4F41E050E0BE01D6
:10462000645B7F4FCE018E5B9F4F0E94AF689E01FF
:104630002C5B3F4F44E050E0BE016A5C7F4FCE01EF
:104640008E5B9F4F0E94AF689E012C5B3F4F41E005
:1046500050E0BE01655B7F4FCE018E5B9F4F0E9495
:10466000AF689E012C5B3F4F41E050E0BE01665BAE
:104670007F4FCE018E5B9F4F0E94AF681AE01150B2
:1046800071F09E012C5B3F4F44E050E0BE016A5C3C
:104690007F4FCE018E5B9F4F0E94AF68F0CF1AA66E
:1046A0001BA61CA61DA69E012C5B3F4F44E050E0BC
:1046B000BE01665D7F4FCE018E5B9F4F0E94AF684B
:1046C0001EAA1FAA18AE19AE1AE0115071F09E0171
:1046D0002C5B3F4F44E050E0BE016A5C7F4FCE014F
:1046E0008E5B9F4F0E94AF68F0CF83E02A968FAF1A
:1046F0002A9729968FAF29971EA21FA218A619A63E
:104700001AA21BA21CA21DA21EAA1FAA18AE19AE95
:104710009E012C5B3F4F41E050E0BE01675B7F4F45
:10472000CE018E5B9F4F0E94AF689E012C5B3F4F76
:1047300041E050E0BE01685B7F4FCE018E5B9F4F32
:104740000E94AF689E012C5B3F4F44E050E0BE01E9
:104750006E5D7F4FCE018E5B9F4F0E94AF689E01C2
:104760002C5B3F4F44E050E0BE016A5D7F4FCE01BD
:104770008E5B9F4F0E94AF680AE010E00150110964
:1047800071F09E012C5B3F4F44E050E0BE016A5C3B
:104790007F4FCE018E5B9F4F0E94AF68EFCF289670
:1047A0001FAE28971EAA1FAA18AE19AE8FEF279624
:1047B0008FAF27979E012C5B3F4F41E050E0BE0139
:1047C000695B7F4FCE018E5B9F4F0E94AF689E0159
:1047D0002C5B3F4F44E050E0BE016A5C7F4FCE014E
:1047E0008E5B9F4F0E94AF689E012C5B3F4F41E064
:1047F00050E0BE016A5B7F4FCE018E5B9F4F0E94EF
:10480000AF681EAA1FAA18AE19AE1DE0115071F0B4
:104810009E012C5B3F4F44E050E0BE016A5C7F4F3D
:10482000CE018E5B9F4F0E94AF68F0CF84EB90E08B
:104830009F8F8E8F80EF90E099A388A386E490E00D
:104840009B8F8A8F8EE690E09D8F8C8F1F8A1E8AA9
:10485000198E188E9E012C5B3F4F44E050E0BE0144
:10486000625E7F4FCE018E5B9F4F0E94AF689E01BC
:104870002C5B3F4F44E050E0BE01665E7F4FCE01AF
:104880008E5B9F4F0E94AF689E012C5B3F4F44E0C0
:1048900050E0BE016A5E7F4FCE018E5B9F4F0E944B
:1048A000AF68C12CB0E8DB2EBBE3EB2EB5E4FB2EEA
:1048B000812C912C00E8A02E0FE3B02E1230B0F521
:1048C0009E012C5B3F4F44E050E062E472E0CE0179
:1048D0008E5B9F4F0E94AF689E012C5B3F4F44E070
:1048E00050E06EE372E0CE018E5B9F4F0E94AF6896
:1048F0009E012C5B3F4F44E050E066E472E0CE0145
:104900008E5B9F4F0E94AF688EAA9FAAA8AEB9AED9
:104910009E012C5B3F4F44E050E0BE016A5C7F4F3C
:10492000CE018E5B9F4F0E94AF6826C0CEAADFAA41
:10493000E8AEF9AE9E012C5B3F4F44E050E0BE0173
:104940006A5C7F4FCE018E5B9F4F0E94AF681EAAAC
:104950001FAA18AE19AE04E0015071F09E012C5B45
:104960003F4F44E050E0BE016A5C7F4FCE018E5B5A
:104970009F4F0E94AF68F0CF1F5F153009F09ECFA8
:1049800084E190E022969FAF8EAF22979E012C5B30
:104990003F4F42E050E0BE01605C7F4FCE018E5B36
:1049A0009F4F0E94AF6880E090E8ABE3B5E48EAB28
:1049B0009FABA8AFB9AF14E0115071F09E012C5B12
:1049C0003F4F44E050E0BE016A5C7F4FCE018E5BFA
:1049D0009F4F0E94AF68F0CF80E290E09FAF8EAF14
:1049E0009E012C5B3F4F42E050E0BE01625C7F4F76
:1049F000CE018E5B9F4F0E94AF689E012C5B3F4FA4
:104A000041E050E066E37BE0CE018E5B9F4F0E9469
:104A1000AF68A8E2EA2EA2E0FA2E123048F4F701BD
:104A200080819181A281B3818EAB9FABA8AFB9AFDA
:104A30009E012C5B3F4F44E050E0BE016A5C7F4F1B
:104A4000CE018E5B9F4F0E94AF681F5FF4E0EF0EB8
:104A5000F11C153011F71DAE1CAE1BE09E012C5B46
:104A60003F4F42E050E0BE01645C7F4FCE018E5B61
:104A70009F4F0E94AF68115089F79E012C5B3F4FFA
:104A800044E050E068E172E0CE018E5B9F4F0E94EF
:104A9000AF689E012C5B3F4F44E050E065ED7AE04B
:104AA000CE018E5B9F4F0E94AF6819821A821B82D3
:104AB0001C8214E0115071F09E012C5B3F4F44E0CA
:104AC00050E0BE016F5F7F4FCE018E5B9F4F0E9413
:104AD000AF68F0CF80911C0B8111C2C32496EEAC5D
:104AE000FFAC249726968EAD9FAD26979BAF8AAFDD
:104AF00084E690E024969FAF8EAF24979E012C5BB6
:104B00003F4F44E050E06FE972E0CE018E5B9F4F73
:104B10000E94AF689E012C5B3F4F42E050E0BE0117
:104B2000665C7F4FCE018E5B9F4F0E94AF68EBE2C9
:104B3000F6E184918F010F5F1F4F882321F00E94BF
:104B40006230F801F6CFB701645671098DEF94E039
:104B50000E947F3F6AAD7BAD80EF94E00E947F3F73
:104B6000EDEEF4E084918F010F5F1F4F882309F46D
:104B700077C30E946230F801F5CF0E94235A70C3B8
:104B80000E94EA586DC383E50E94262F882319F0FE
:104B90000E94E42E01C081E091E089270E94E55443
:104BA0005FC30E946C688BE40E94622F882399F097
:104BB0000E94F32E6B017C0120E030E0A9010E94ED
:104BC000087F87FD08C0C0921802D0921902E092B7
:104BD0001A02F0921B0282E50E94622F882361F084
:104BE0000E94F32E6B017C0120E030E0A9010E94BD
:104BF000CB7887FF91C006C0C12CD12CF0E8EF2EF6
:104C0000FFEBFF2E84E40E94622F882329F00E948C
:104C1000F32E4B015C0106C0812C912CE0E8AE2EF6
:104C2000EFEBBE2E87E50E94622F882329F00E94B9
:104C3000F32E2B013C0106C0412C512C70E8672E4D
:104C40007FEB772E88E40E94622F882349F00E9430
:104C5000F32E62966CAF7DAF8EAF9FAF62970AC0A6
:104C600020E030E040E85FEB62962CAF3DAF4EAF06
:104C70005FAF629720E030E0A901C501B4010E9456
:104C8000087F87FD49C020E030E0A901C301B201DF
:104C90000E94087F87FD40C020E030E0A9016296B5
:104CA0006CAD7DAD8EAD9FAD62970E94087F87FD94
:104CB00033C020E030E0A901C501B4010E94CB78E7
:104CC0008823A1F120E030E040E05FE3C501B401BA
:104CD0000E9430796B017C0162962CAD3DAD4EADEA
:104CE0005FAD6297C301B2010E9430794B015C0154
:104CF000A7019601C701B6010E9430792BED3FE074
:104D000049E450E40E9430799B01AC01C501B40133
:104D10000E94BE7D6B017C0120E030E0A901C7014B
:104D2000B6010E94087F87FF04C00BC0C12CD12CA4
:104D30007601C092D50AD092D60AE092D70AF092B4
:104D4000D80AEBE2F6E184918F010F5F1F4F8823B1
:104D500021F00E946230F801F6CF40911802509184
:104D6000190260911A0270911B028AE195E00E947B
:104D70003B3FE4E1F5E084918F010F5F1F4F8823F3
:104D800021F00E946230F801F6CFC090D50AD09091
:104D9000D60AE090D70AF090D80A20E030E0A901C6
:104DA000C701B6010E94CB78882339F042E0C701E1
:104DB000B6010E94DE330C947119EFE0F5E08491A6
:104DC0008F010F5F1F4F882311F40C9471190E94FB
:104DD0006230F801F4CF84918F010F5F1F4F882359
:104DE00021F00E946230F801F6CFE5E2F5E084910F
:104DF0008F010F5F1F4F882309F432C20E94623077
:104E0000F801F5CFC12C50ECD52E5AEDE52E55E426
:104E1000F52ECA8EDB8EEC8EFD8EE0919A0C0E2F55
:104E200010E0D801AA0FBB1FAA0FBB1FAA5DB44F89
:104E300020E030E046EE52E46D917D918D919C91A1
:104E40000E94E27C6E8B7F8B888F998FF801EE0F2A
:104E5000FF1FEE0FFF1FE25EF44F20E030E040E75F
:104E600053E460817181828193810E94E27C698335
:104E70007A838B839C83AE01465E5F4FBE016A5E80
:104E80007F4FCE0101960E94FB5ECA8EDB8EEC8EB8
:104E9000FD8EE0919A0C0E2F10E0D801AA0FBB1FD7
:104EA000AA0FBB1FAA5DB44F20E030E046EE52E4EB
:104EB0006D917D918D919C910E94E27C6E8B7F8B98
:104EC000888F998FF801EE0FFF1FEE0FFF1FE25E34
:104ED000F44F20E030E843E953E46081718182813E
:104EE00093810E94E27C69837A838B839C83AE01E9
:104EF000465E5F4FBE016A5E7F4FCE0101960E9403
:104F0000FB5ECA8EDB8EEC8EFD8E80919A0C90E05B
:104F10008C01000F111F000F111FD801A959BD4F9F
:104F2000F801EA5DF44F20813181428153816D9116
:104F30007D918D919C910E94E27C6E8B7F8B888FFE
:104F4000998FF801E25EF44F20E030E843E953E442
:104F500060817181828193810E94E27C69837A837E
:104F60008B839C83AE01465E5F4FBE016A5E7F4FBE
:104F7000CE0101960E94FB5ECA8EDB8EEC8EFD8E0A
:104F800080919A0C90E08C01000F111F000F111FEF
:104F9000D801A959BD4FF801EA5DF44F2081318154
:104FA000428153816D917D918D919C910E94E27C13
:104FB0006E8B7F8B888F998FF801E25EF44F20E033
:104FC00030E040E753E460817181828193810E94E7
:104FD000E27C69837A838B839C83AE01465E5F4F5C
:104FE000BE016A5E7F4FCE0101960E94FB5ECA8EB3
:104FF000DB8EEC8EFD8E00919A0C10E0E091620247
:1050000034E0E39FF0011124E959FD4FD801AA0FC4
:10501000BB1FAA0FBB1FAA5DB44F2D913D914D91AF
:105020005C9160817181828193810E94E27C6E8BB0
:105030007F8B888F998F000F111F000F111FF801B0
:10504000E25EF44F20E030E040E753E4608171819C
:10505000828193810E94E27C69837A838B839C8323
:10506000AE01465E5F4FBE016A5E7F4FCE01019684
:105070000E94FB5ECA8EDB8EEC8EFD8E00919A0C38
:1050800010E0E091620244E0E49FF0011124E9594C
:10509000FD4FD801AA0FBB1FAA0FBB1FAA5DB44FBB
:1050A0002D913D914D915C916081718182819381BF
:1050B0000E94E27C6E8B7F8B888F998F000F111F6F
:1050C000000F111FF801E25EF44F20E030E843E9E1
:1050D00053E460817181828193810E94E27C6983C3
:1050E0007A838B839C83AE01465E5F4FBE016A5E0E
:1050F0007F4FCE0101960E94FB5ECA8EDB8EEC8E46
:10510000FD8EE0919A0C0E2F10E0D801AA0FBB1F64
:10511000AA0FBB1FAA5DB44F20E030E046EE52E478
:105120006D917D918D919C910E94E27C6E8B7F8B25
:10513000888F998FF801EE0FFF1FEE0FFF1FE25EC1
:10514000F44F20E030E843E953E4608171818281CB
:1051500093810E94E27C69837A838B839C83AE0176
:10516000465E5F4FBE016A5E7F4FCE0101960E9490
:10517000FB5ECA8EDB8EEC8EFD8EE0919A0C54E0C5
:10518000E59FF0011124EA5DF44FC080D180E280F8
:10519000F38020E030E046EE52E4C701B6010E9401
:1051A000E27C6E8B7F8B888F998F20E030E040E728
:1051B00053E4C701B6010E94E27C69837A838B8342
:1051C0009C83AE01465E5F4FBE016A5E7F4FCE019B
:1051D00001960E94FB5E44C068D642C01091D8047C
:1051E00080919A0C181741F083E530D6082F882358
:1051F00021F0EAD5082F01C001E086E463D68823B8
:1052000011F0F1D503C060E070E0CB01123020F066
:10521000812F0E947D3124C020E030E040E752E43D
:105220000E94BE7DAB01BC01202F812F0E94C46E65
:1052300017C0EBE2F6E184918F010F5F1F4F8823C7
:1052400019F040D7F801F7CF6091590C70915A0CC2
:1052500084E395E00E94983F82E234D78AE032D717
:105260001092530C1092520C0E949170B5C3E091B1
:105270004A03F0914B03EF2B31F4FC013197F0938B
:105280004B03E0934A03A0E0B0E00C94BC0D61E056
:10529000802F0E941C626E2D802F0E94ED61F12CE8
:1052A000B701802F0E94586209301105C9F6F092AB
:1052B000120BE092110BD4CF96D520914C0330E025
:1052C000220F331F89010251144F0E94267ED801FC
:1052D0006D937C9388D520E030E04AEA52E40E9446
:1052E000CB7818161CF00E94E35E02C00E94605F3B
:1052F0000E94C03F81E0809300021092530C1092F4
:10530000520C66961CAE1DAE1EAE1FAE66976A9618
:105310001CAE1DAE1EAE1FAE6A972F961FAE2F9706
:105320006F961FAE6F975CE3A3965FAFA3978CE178
:10533000A7968FAFA79796E4AB969FAFAB97C12C7C
:10534000D12C70E8E72EEFEBFE2E812C912C54012E
:1053500000914C0310E0F801EE0FFF1FE251F44FF3
:1053600060817181072E000C880B990B0E94D17807
:10537000762E672E582E492E262F372F482F592F3D
:10538000B601C7010E94CB78882309F1000F111FD5
:10539000000F111FF801ED51F44F2081318142813E
:1053A0005381672D762D852D942D0E94CB78881FF3
:1053B0008827881F2F968FAF2F976B96CFAC6B9750
:1053C000CC2049F0882339F08091000249CF7C2C11
:1053D0006D2C5E2C4F2C0E9457636B017C01DC010D
:1053E000CB016A962CAD3DAD4EAD5FAD6A97821B89
:1053F000930BA40BB50BB7FD38C0D701C60188517C
:105400009C4FAF4FBF4F6A968CAF9DAFAEAFBFAF53
:105410006A970E942E35EFE6F2E084918F010F5FCC
:105420001F4F882319F04ED6F801F7CF811491044D
:10543000A104B104B1F0D501C4018854944FAF4F19
:10544000BF4FBC01CD016C197D098E099F0928EE63
:1054500033E040E050E00E94A67CCA01B901ADD71C
:1054600002C08FE32FD68AE02DD60E94D26A1FD6C3
:10547000E0914C0394E0E99FF0011124ED51F44FC9
:1054800020803180028113819101A801672D762D42
:10549000852D942D0E94E17C9F7781149104A104B5
:1054A000B10449F420E030E040E85FE30E94CB78AB
:1054B00087FF0BC008C020E030E040E450E40E94C9
:1054C000087F181614F4460157012F96AFAD2F9799
:1054D000AA2309F443C066962CAD3DAD4EAD5FAD39
:1054E0006697211531054105510541F0D701C601E7
:1054F000821B930BA40BB50BB7FD30C09101A80123
:105500006F966FAD6F97A3967FADA397A7968FAD5C
:10551000A797AB969FADAB970E94E17C20E030E06F
:1055200040EC5FE30E94CB7887FD4ECFD701C601E8
:10553000805A9541AF4FBF4F66968CAF9DAFAEAFCF
:10554000BFAF66976F962FAE6F97A3963FAEA397A8
:10555000A7960FAFA797AB961FAFAB9780910002AE
:10556000882309F431CF81149104A104B10429F4F2
:10557000C72CD62CE52CF42CEBCE98EBC91A9BE06B
:10558000D90AE108F108C818D908EA08FB08F7FEAB
:105590001BCFEECF88E596D4882359F024D424E09D
:1055A000129FF0011124E25EF44F608371838283C5
:1055B000938389E587D4882379F000914C0310E028
:1055C00012D4000F111F000F111FF801EA5DF44FF4
:1055D00060837183828393838AE574D4882379F00E
:1055E00000914C0310E0FFD3000F111F000F111F9B
:1055F000F801E25DF44F6083718382839383EBE271
:10560000F6E184918F010F5F1F4F882319F05AD55F
:10561000F801F7CFEDE2F3E084918F010F5F1F4FA8
:10562000882311F40C9447194DD5F801F5CFA096B5
:105630004EAD5FADA097141615060CF05FC1C956AC
:10564000DF4F88809980AA80BB80C759D040880EE0
:10565000991EAA1EBB1EC956DF4F288139814A8177
:105660005B81C759D040281B390B4A0B5B0BCA0121
:10567000B901A30192010E94977CA50194010E94A7
:10568000CD7F6A964CAC5DAC6EAC7FAC6A97420E37
:10569000531E641E751E34E14316510461047104E7
:1056A0001CF14CEE44165104610471043CF450E8C2
:1056B00045165104610471043CF105C06BEE462EA1
:1056C000512C612C712C6A964CAE5DAE6EAE7FAEE5
:1056D0006A978EEF90E0A0E0B0E084199509A609E2
:1056E000B7092C013D0116C024E130E040E050E054
:1056F0006A962CAF3DAF4EAF5FAF6A9754E1452E2F
:10570000512C612C712C06C06A964CAE5DAE6EAE0B
:105710007FAE6A976A964CAD5DAD6EAD7FAD6A9710
:1057200087EC94E00E94583FB301A20182EC94E020
:105730000E94583FE3964FADE397EF965FADEF972A
:10574000CE57DF4F6881C258D040E7967FADE797CC
:105750008BEB94E00E943B3FEB964FADEB97CA5723
:10576000DF4F5881C658D040C957DF4F6881C758AE
:10577000D040C857DF4F7881C858D04084EB94E0C0
:105780000E943B3FA0964EAD5FADA09743305105C0
:105790000CF4B4C0C301B2010E94D17820E030E023
:1057A00040E850E40E9430796B017C01E3962FAD14
:1057B000E397EF963FADEF97CE57DF4F4881C25842
:1057C000D040E7965FADE797EB966FADEB97CA5782
:1057D000DF4F7881C658D040C957DF4F8881C758FE
:1057E000D040C857DF4F9881C858D0400E94E17C14
:1057F0002BED3FE049E450E40E94307920E030E0B6
:1058000040E05FE30E9430799B01AC01C701B60123
:105810000E94BE7D6B017C01C501B4010E94D1785C
:105820002FE632E143E85AE30E9430794B015C01F4
:10583000B701A6018EEA94E00E943B3FB501A401A6
:1058400088EA94E00E943B3F2AE939E949E15FE3B5
:10585000C701B6010E9430796B017C019B01AC014C
:105860000E94E27CA50194010E94BE7DC757DF4FD4
:10587000688379838A839B83C958D040A5019401AA
:10588000C701B6010E94307920E030E040E05EE3DD
:105890000E943079C357DF4F688379838A839B8363
:1058A000CD58D040E8E9F4E084915F015FEFA51A9C
:1058B000B50A882319F006D4F501F6CFB701A60181
:1058C00082E994E00E943B3FC757DF4F48815981EE
:1058D0006A817B81C958D0408CE894E00E943B3FAC
:1058E000C357DF4F488159816A817B81CD58D040B1
:1058F00086E894E00E943B3F8AE0E4D36A968CAD50
:105900009DADAEADBFAD6A97840D951DA61DB71DAB
:10591000B595A79597958795CF55DF4FE881F98184
:10592000C15AD0408083A0962EAD3FADA0972F5F87
:105930003F4FA0963FAF2EAFA097A3963FADA39742
:10594000E3963FAFE397A7964FADA797EF964FAF7C
:10595000EF97AB965FADAB97CE57DF4F5883C258EA
:10596000D040AF968FADAF97E7968FAFE7976E9623
:105970008CAC9DACAEACBFAC6E9791E0CE56DF4F19
:105980009883C259D0400C9439210E946C6860E021
:105990008F2D0E941C620F3FBFEF1B0759F48F2D04
:1059A0000E94E25F31E020E0892B09F030E0032F14
:1059B000122F05C00130110561F000E010E08F2DBD
:1059C0000E94E25F8017910709F44ACC0E94D26AD4
:1059D000F6CF01E010E0F3CFCA55DF4F0FB6F894D1
:1059E000DEBF0FBECDBFDF91CF911F910F91FF9012
:1059F000EF90DF90CF90BF90AF909F908F907F906F
:105A00006F905F904F903F902F9008958FB7F894CC
:105A10009091240D2091230D291759F0E92FF0E0E2
:105A2000ED55F34F208130E09F5F9F779093240DD9
:105A300002C02FEF3FEF8FBFC9010895FF920F9370
:105A40001F93CF93DF93FC0120812B3319F1D09169
:105A5000780BD430F8F4F62EBC01C091DD040C2F85
:105A600010E0F0E6CF9FC00111248E5A9C4F0E9497
:105A70000580F801EA5AF44FF082CF5FC43018F481
:105A8000C093DD0402C01092DD04DF5FD093780B79
:105A900081E001C080E0DF91CF911F910F91FF90D5
:105AA000089580E1E9E7FBE0AFE6BCE001900D92EC
:105AB0008A95E1F7089580E1EFE6FCE0A9E7BBE015
:105AC00001900D928A95E1F70895CF92EF92FF929F
:105AD0000F931F93C0909A0C7B018C012BE73CE045
